:020000041000EA
:1000000000B5324B212058609868022188439860DF
:10001000D860186158612E4B002199600221596106
:100020000121F02299502B49196001219960352056
:1000300000F044F80222904214D00621196600F024
:1000400034F8196E01211966002018661A6600F04E
:100050002CF8196E196E196E052000F02FF8012189
:100060000842F9D1002199601B49196000215960AB
:100070001A491B48016001219960EB211966A021F2
:10008000196600F012F800219960164914480160C1
:100090000121996001BC002800D000471248134993
:1000A000086003C880F30888084703B5996A0420EC
:1000B0000142FBD001200142F8D103BD02B5186610
:1000C0001866FFF7F2FF186E186E02BD00000240BE
:1000D000000000180000070000035F00212200005C
:1000E000F4000018222000A00001001008ED00E03C
:1000F00000000000000000000000000074B24E7A12
:1001000000000420E3010010C3010010E903001007
:10011000ED030010F1030010F5030010C101001001
:10012000C1010010C1010010C10100104503001001
:10013000C1010010C1010010C9030010D503001057
:10014000CD010010CD010010CD010010CD01001037
:10015000CD010010CD010010CD010010CD01001027
:10016000CD010010CD010010CD010010CD01001017
:10017000CD010010CD010010CD010010CD01001007
:10018000CD010010CD010010CD010010CD010010F7
:10019000CD010010CD010010CD010010CD010010E7
:1001A000CD010010CD010010CD010010CD010010D7
:1001B000CD010010CD010010CD010010CD010010C7
:1001C00000BE00BE00BE00BE00BE00BE00F03FF894
:1001D000103800BE00202049086006C881F3088856
:1001E00010471E48006800282DD10CA40ECC002911
:1001F00002D000F010F8F9E719491A4A002000E08F
:1002000001C19142FCD1184988471849884700BE6E
:10021000FDE701C901C29A42FBD37047E44B0110CC
:10022000C0000020B80F0020E85A01100000042090
:1002300000000420E85A01100010042000100420DF
:100240000000000070470A480BF0F0F90047EFF398
:100250000580C0B27047000008ED00E0000000D04B
:10026000C80F0020ECA70020CD020010F597001069
:1002700057560000F8B5C046F8BC08BC9E4670470B
:10028000F8B5C04610B5064C2378002B07D1054BB6
:10029000002B02D0044800E000BF0123237010BDF2
:1002A000189500200000000084020010044B10B5D7
:1002B000002B03D00349044800E000BF10BDC04636
:1002C000000000001C95002084020010164B002B3B
:1002D00000D1144B9D46402292029A1A9246002168
:1002E0008B460F461348144A121A0DF065F80F4B4F
:1002F000002B00D098470E4B002B00D098470020D1
:10030000002104000D000D48002802D00C4809F01F
:1003100074FA0CF0D3FB2000290005F0A7FF09F0C8
:1003200069FAC04600000800000004200000000038
:10033000CD610010C80F0020ECA70020FB97001033
:10034000000000007046C0082CD3EFF309808169DB
:1003500002390978002929D101B50FC8B8470CBC6A
:1003600003C29E461E4B06CB91421ED0083B1A602C
:10037000002909D0EFF3098020388863F0C0444693
:100380004D4656465F46F0C0906B1030F0C8A04610
:10039000A946B246BB4680F309882038F0C802203F
:1003A000C0430047EFF30880D1E770470D4A136858
:1003B0009942FAD801B5890053589C460FC8E047C6
:1003C0000CBC10609E46704701B505F00BFA03BCEB
:1003D0008E46C7E701B505F0C3F903BC8E46C1E7F9
:1003E000E8030020482C0110102304E0202302E041
:1003F000302300E040239C46F0B404AE7546E80884
:1004000001D3EFF309860E4F0FCE0FC70FBC0FC7F6
:100410004046494652465B460FC71DCE3100A60AEC
:1004200000D304316E0900D248311FC7EFF30980B1
:100430006946EFF3148663C76046014908F06EFD14
:10044000E8A4002001480421014B1847E0050020E2
:100450003DB6001002B471464908490009564900EA
:100460008E4402BC7047C04602B471464908490038
:10047000095C49008E4402BC7047C0460022430814
:100480008B4274D303098B425FD3030A8B4244D35C
:10049000030B8B4228D3030C8B420DD3FF2209029E
:1004A00012BA030C8B4202D31212090265D0030B5D
:1004B0008B4219D300E0090AC30B8B4201D3CB0353
:1004C000C01A5241830B8B4201D38B03C01A524195
:1004D000430B8B4201D34B03C01A5241030B8B4297
:1004E00001D30B03C01A5241C30A8B4201D3CB0282
:1004F000C01A5241830A8B4201D38B02C01A524167
:10050000430A8B4201D34B02C01A5241030A8B4269
:1005100001D30B02C01A5241CDD2C3098B4201D381
:10052000CB01C01A524183098B4201D38B01C01AFF
:10053000524143098B4201D34B01C01A5241030976
:100540008B4201D30B01C01A5241C3088B4201D325
:10055000CB00C01A524183088B4201D38B00C01AD2
:10056000524143088B4201D34B00C01A5241411AF9
:1005700000D20146524110467047FFE701B5002006
:1005800000F0F0F802BDC0460029F7D076E77047CA
:1005900003460B437FD4002243088B4274D30309E4
:1005A0008B425FD3030A8B4244D3030B8B4228D385
:1005B000030C8B420DD3FF22090212BA030C8B42AB
:1005C00002D31212090265D0030B8B4219D300E04B
:1005D000090AC30B8B4201D3CB03C01A5241830BD0
:1005E0008B4201D38B03C01A5241430B8B4201D380
:1005F0004B03C01A5241030B8B4201D30B03C01AA9
:100600005241C30A8B4201D3CB02C01A5241830A22
:100610008B4201D38B02C01A5241430A8B4201D351
:100620004B02C01A5241030A8B4201D30B02C01A7B
:100630005241CDD2C3098B4201D3CB01C01A5241E2
:1006400083098B4201D38B01C01A524143098B426B
:1006500001D34B01C01A524103098B4201D30B0154
:10066000C01A5241C3088B4201D3CB00C01A524179
:1006700083088B4201D38B00C01A524143088B423E
:1006800001D34B00C01A5241411A00D201465241D7
:10069000104670475DE0CA0F00D04942031000D3F6
:1006A0004042534000229C4603098B422DD3030A4B
:1006B0008B4212D3FC22890112BA030A8B420CD35B
:1006C000890192118B4208D3890192118B4204D384
:1006D00089013AD0921100E08909C3098B4201D304
:1006E000CB01C01A524183098B4201D38B01C01A3E
:1006F000524143098B4201D34B01C01A52410309B5
:100700008B4201D30B01C01A5241C3088B4201D363
:10071000CB00C01A524183088B4201D38B00C01A10
:100720005241D9D243088B4201D34B00C01A5241E7
:10073000411A00D20146634652415B10104601D374
:100740004042002B00D54942704763465B1000D3FE
:10075000404201B5002000F005F802BD0029F8D0A4
:1007600016E770477047C046D0400B1CD1409C46EE
:10077000203AD3401843524263469340184370478F
:100780009140031C90409C46203A934019435242AA
:100790006346D340194370478446101C62468C461A
:1007A000191C634600E0C0461FB501F05BF8002845
:1007B00001D40021C8421FBD10B500F0B3FF404274
:1007C000013010BD10B501F04DF8002801DB00200C
:1007D00010BD012010BDC04610B501F043F800283F
:1007E00001DD002010BD012010BDC04610B500F095
:1007F000D5FF002801DC002010BD012010BDC0463F
:1008000010B500F0CBFF002801DA002010BD012058
:1008100010BDC0461C2101231B04984201D3000CCB
:1008200010391B0A984201D3000A08391B09984263
:1008300001D30009043902A2105C40187047C04679
:100840000403020201010101000000000000000099
:10085000002B15D1002A13D1002906DB01DC00286A
:1008600006D00020C043410802E080210906002094
:1008700007B4024801A14018029003BDE9FEFFFF42
:1008800003B4684601B5029800F012F9019B9E4638
:1008900002B00CBC7047C046002B11D1002A0FD10A
:1008A000002900D1002802D00021C943081C07B448
:1008B000024802A14018029003BDC046A9FEFFFFF6
:1008C00003B4684601B5029800F030F8019B9E46DB
:1008D00002B00CBC7047C046F0B5CE464746150482
:1008E0002D0C2E0080B50704140C3F0C9946030C08
:1008F0007E435D43674363437F19340CE4199C4690
:10090000A54203D980235B029846C4444B46434327
:100910005143250C36046544360C2404A4195B1994
:10092000591820000CBC90469946F0BDF0B54F46D2
:100930004646D646C0B5040082B00D0091469846A2
:100940008B422FD82CD04146484601F06BFE29003F
:100950000600200001F066FE331A9C46203B9A46B2
:1009600000D576E04B46524693401F004B46624608
:1009700093401E00AF4228D825D05346A41BBD414A
:10098000002B00DA7BE00022002300920193012378
:10099000524693400193012362469340009318E02E
:1009A0008242D0D900220023009201930A9B002B9F
:1009B00001D01C605D600098019902B01CBC90469B
:1009C0009946A246F0BDA342D7D900220023009247
:1009D00001936346002BE9D0FB0798464146720815
:1009E0000A437B0866460EE0AB4201D1A2420CD816
:1009F000A41A9D41012024196D410021013E2418B3
:100A00004D41002E06D0AB42EED9013E24196D4176
:100A1000002EF8D100980199534600196941002B26
:100A200023DB2B005246D3402A006446E2401C00E0
:100A300053461500002B2DDB26005746BE403300E1
:100A400026006746BE403200801A9941009001910D
:100A5000ACE7624620239B1A4A46DA4061461300FF
:100A600042468A4017001F4380E7624620239B1AB4
:100A70002A0066469A402300F3401343D4E76246B7
:100A8000202300219B1A0022009101920122DA40CA
:100A9000019280E72023624626009B1ADE402F0049
:100AA000B0466646B74046463B003343C8E7C046BB
:100AB000F0B583B016001F000090019101F0BEFD5B
:100AC00004000D0002000B0030003900FFF704FFA6
:100AD000009A019B121A8B41089920000A604B6012
:100AE000290003B0F0BDC046F0B54F464646D64695
:100AF0000C000903C0B5490A470F5E0039431F03C4
:100B0000DB0F9C4665007B0A570F1F436D0DE40FFA
:100B1000760DA146C000B846D200AB1B64457BD021
:100B2000002B5FDD002E00D0A4E03E00164300D174
:100B300012E15E1E002E00D09EE1871A4346B842A5
:100B400080410125C91A4042091A0B0200D431E143
:100B500049024E0A002E00D16EE13000FFF75AFE26
:100B60000300083B1F2B00DD61E120223900D21A6F
:100B70009E40D1409F400E439D4200DD51E15D1BF0
:100B80006B1C1F2B00DD7CE12021C91A3D003000C9
:100B90008F408840DD40791E8F4131000722284375
:100BA000D940002507433A40002A09D00F233B4093
:100BB000042B05D03B1DBB42BF417F42C9191F001A
:100BC0000B0200D426E26A1CC64B55056D0D9A42F5
:100BD00000D106E1C44AFF080A40530752023B43D2
:100BE000120B8EE0002B00D0B8E06B1C5B055B0D98
:100BF000012B00DC30E1871A4346B842B641CB1ADC
:100C000076429E1B330200D54CE13B003343A1D119
:100C100000220024002570E0002B00DCE5E0002E1F
:100C200000D183E0AF4EB54260D080263604374312
:100C3000B846382B00DC3EE1434613431F007A1EC2
:100C400097413F1887428041404209180B0200D467
:100C5000B0E0A44B01359D4200D1C3E0A24A7B081D
:100C60000A4001210F401F435108D30707221F43A9
:100C70003A4099E79B4EB54238D080263604374338
:100C8000B846382B00DDDCE01F2B00DC30E11E0015
:100C90004746203EF740BC46202B04D04026F31A9E
:100CA00046469E403243170063467A1E97411F43D3
:100CB000CCE0002B00D104E24346134300D159E1BC
:100CC0004B07C00818438023C9081B03194208D0EA
:100CD0004546ED081D4204D14346D0085907084354
:100CE0002900420FC9007F4D1143C0004B07CA08BD
:100CF0007C49C00803438D4268D012036D05120B76
:100D00006D0D002112031800130B0A0D12051A4372
:100D1000764B2D0513402B435B00E4075B08234310
:100D200019001CBC90469946A246F0BD3E001643F1
:100D300012D05E1E002E00D000E18718874280414D
:100D400041444042091801250B0233D5022585E7AD
:100D500064463300414610001D00C7E7002D00D057
:100D6000DAE00C000443F3D05C1C00D19FE15D4C41
:100D7000A64200D12FE1DB43382B00DD66E11F2BBB
:100D800000DD83E120240500E41A0F00DD40D94096
:100D9000A0404346A7405B1A441EA04198462F43FB
:100DA0003843171ABA42924143465242991A64464E
:100DB0003500CAE607223A40002A00D0F6E64B0783
:100DC000CA084849FF083B438D4296D11900114398
:100DD00000D19EE1802109030A431203120B414D09
:100DE0008FE71500002200238BE7002B00D0C7E01F
:100DF0006B1C5F057F0D012F00DCF1E0394DAB422C
:100E000000D1B9E085180A0085428941424449422F
:100E100051180722CF076D082F4349083A401D009B
:100E2000C2E607223049ED1A31403A40BCE63E00A6
:100E30002838864000279FE63800FFF7EBFC20307B
:100E40008EE6434613431F007A1E9741C71BB842E4
:100E500080414042091A78E60E003B0006431343E6
:100E6000002D61D1002E00D0F4E0002B00D11BE159
:100E700064463900100039E71A4FBB427AD033007C
:100E8000FFE630001F3DE840202B03D04021CB1A65
:100E90009E4037437B1E9F41072207433A40002173
:100EA000002589E7171A4346BA42B641591A7642D5
:100EB0008E1B64464EE61F2B00DDADE02026474624
:100EC000F61AB740B9461700B246DF404E463E43D9
:100ED00037005646B240561EB24117434246DA40EA
:100EE0008918AEE6FF070000FFFF7FFFFFFF0F80BE
:100EF00020264746F61AB740B9461700B246DF40EB
:100F00004E463E4337005646B240561EB241174346
:100F10004246DA40891A99E77F4CA6425BD080248A
:100F200024045B42214327E7002E0CD1002B00D183
:100F3000CBE0644639001000774DD7E6764FBB42D0
:100F400018D0330075E6002B14D04B07C0081843A7
:100F50008023C9081B03194207D0FC081C4204D196
:100F60007907D0080843E14621004C46420FC900EA
:100F70001143C000684DB9E61D0000220023C0E601
:100F8000002D5BD10D00054300D1E2E65D1C00D1D0
:100F9000B0E0614DAE421FD0DB43382B71DC1F2B1C
:100FA00000DD96E020250F00ED1AAF40B94607009E
:100FB000AA46DF404D463D432F005546A840D94044
:100FC000451EA84188440743BF18974292415142A9
:100FD000414435003AE6644635004146100085E656
:100FE0000B000343002D00D063E6002BF5D04346F1
:100FF000134300D17AE68718874280410722414493
:10100000404209183A400B0200D4D5E6434B013563
:101010001940C9E5380069E61E004746203EF74002
:10102000BC46202B04D04026F31A46469E4032434D
:10103000170063467A1E97411F4302E6364DAE42C3
:10104000CAD080252D045B422943A6E70843411EF0
:101050008841A6E6002B00D148E6871A4346B842ED
:10106000B641CB1A76429E1B33024BD5171A434624
:10107000BA429241591A5242891A072264463A40AA
:1010800092E501430F00791E8F419DE71C000F0080
:10109000203CE740202B03D04024E31A994008432A
:1010A000411E884138437CE60022002425E6171AB9
:1010B0004346BA429241591A5242891A644635004F
:1010C00043E541461000144D10E68022002412032F
:1010D00080E61D000F00203DEF40BC46202B03D0D2
:1010E0004025EB1A9940084307006346781E874164
:1010F0001F4369E7871897429B4141445B42C918E7
:101100003500A3E53B003343CED0072231003A40FF
:1011100052E600231A00F4E5FF070000FFFF7FFFFF
:10112000F0B55746DE464E464546E0B583460700D5
:101130000E03480085B092461C00360B400DCD0FC3
:10114000002800D19DE0954B984239D08023F600CD
:101150001B041E43924A7B0F334399469446030077
:101160006344009300230026FF00029323031B0B1C
:1011700098466300E40F52465B0D019400D1B3E042
:1011800086498B4200D19EE04246D1008022120463
:101190000A435146490F11438B46814952468C46BA
:1011A00000996344CB1A0021D20000932B006340C6
:1011B0009A460F2E00D905E17A4BB6009B599F46FF
:1011C0005B463343994600D0B8E002230826002747
:1011D00000900293CAE7CB463A0002990195019B21
:1011E0009A46022927D0032900D180E2012944D060
:1011F0006D49009B8C4663441C00002C38DD53076E
:1012000000D013E2D2085B46DB0109D55946674B93
:1012100019408B468021C9008C46009B63441C000A
:10122000634B9C4207DC5B4664055F075B02174328
:101230001B0B620D02E000230027584A00211B030C
:101240001C0B0B0D1B05234314055A4A3800134091
:101250001C4353466400DB0764081C43210005B0AF
:101260003CBC90469946A246AB46F0BD0122524294
:1012700001231B1B382B00DCADE1002200230027DB
:10128000DCE75B46334399465ED0002E00D18AE10D
:101290003000FFF7BFFA03000B3B1C2B00DD7BE1A6
:1012A0001D22D31A5A460100DA4008398E40130035
:1012B0005F46334399468F403F4B00261B1A0093ED
:1012C0000023029352E7414653460B433B499B465A
:1012D0008C46009B634400935B46002B3BD102236A
:1012E00000221E43022161E7434613439B4637D049
:1012F0004346002B00D162E14046FFF78BFA030022
:101300000B3B1C2B00DD53E102004146083A9140A3
:1013100088461D21CB1A5146D9400B0041460B434C
:101320009B46534693401A00009B25499C466044C7
:1013300003008C4663440093002137E70323B14642
:1013400000900C26029311E700230093013304263A
:10135000002702930AE70323C3461E43032125E720
:1013600001331E430022012120E700239A468023F7
:1013700000271B03094A61E7802349461B031942E2
:1013800000D1E2E05946194200D0DEE00B431B03D6
:1013900017001B0BA246014A50E7C046FF0700009A
:1013A00001FCFFFFEC250110FF030000FFFFFFFE23
:1013B000FE070000FFFF0F800DFCFFFF01F8FFFF9D
:1013C000F3030000D94500D9CBE000D1C6E03C00D2
:1013D00048460027009B013B00935B46160E1B020C
:1013E0001E431302984633041B0C9946310C01919D
:1013F000FFF7CAF84A4642430B04210C0500194383
:101400008A4207D98919013D8E4203D88A4201D9FF
:10141000851E8919881A0199FFF7B6F809048C46C8
:101420004A46210464464243090C030021438A4290
:1014300004D98919013B8E4200D8F1E02D041D43E7
:10144000AB464346891A4246280C12041D0C5B46E3
:10145000140C22001B041B0C5A4303946B4344439B
:10146000029568431B19150CEB189C4203D9802484
:101470006402A44660441C0C15041B042D0C2018A7
:101480005D19814277D373D00C1AA24A7D1BAF42FB
:10149000BF419446009B7F426344E01B1C00864290
:1014A00000D1DBE00199FFF76FF84A4642430B0495
:1014B000290C070019438A4207D98919013F8E4236
:1014C00003D88A4201D9871E8919881A0199FFF722
:1014D0005BF809044A46894629044D464243090CF3
:1014E000030029438A4207D98919013B8E4203D858
:1014F0008A4201D9831E89193F04891A3A00039F41
:101500001A43380013041B0C584381460298150CEB
:101510006F43434345434846000C8446DB1963440C
:101520009F4203D9802040028446654448461F0CF0
:1015300000041B04000C7D191818A94200D284E095
:1015400000D17FE001231A4357E680234A461B035C
:1015500013431B031B0BAA466F4A6FE6BA4200D91E
:1015600035E74B46DC0758087B081C43FF0734E788
:101570000024AF4289D247444745A4415B466442B8
:10158000A4196418013BA6421ED2A0426DD800D116
:10159000B6E0241A9B4678E703005A46283B9A4057
:1015A0000027914688E65846FFF734F9203072E666
:1015B00003005246283B9A4093460022B4E6504628
:1015C000FFF728F920309AE6A642E2D1B845DCD9E7
:1015D000341A9B4659E71F2B65DC504C0099A446F2
:1015E0005C46614408008C4011008240D940501E86
:1015F00082410C4314435A46DA401300620709D073
:101600000F222240042A05D02200141D9442894151
:1016100049425B181A0262D50122002300270DE619
:101620008A4200D80AE7831E891907E70F2313406F
:10163000042B00D1E6E5171D9742924153429B448B
:10164000FA08E0E5002800D1D7E57118531EB14231
:1016500027D3A94215D358D01A0073E7002B00DC1A
:1016600004E6012300229B44CDE50223474447457D
:1016700089415B429C46494289190C19E344241A6A
:1016800003E743465F0047459B41B8465B429E19CE
:10169000023A8919A94200D054E7404500D051E7E9
:1016A000ABE51A00F6E71F215F4649420C1BE740F5
:1016B000202B07D01A49009B8C46634418005B46D8
:1016C00083401A43501E82413A43072700231740A4
:1016D00009D00F21002311401400042995D12200C4
:1016E0005F075B021B0BD20817430022A6E580238D
:1016F00059461B030B431B0317001B0B064A9DE5B2
:10170000BD42B2D89B460024BFE68045B9D31A003B
:10171000C3E7C046FF030000FF0700001E040000EF
:101720003E040000F0B54F464646D6468446C0B556
:101730008046194E18030F034D00000B5C008246D3
:101740003F0B6D0DC90F9146640DDB0F0120B542B3
:101750000AD0B44203D0A54201D157450CD01CBCDD
:1017600090469946A246F0BD66463E43F7D1AC424C
:10177000F5D154461443F2D10120C845EFD1994226
:1017800007D0002DEBD163461F433800471EB841F8
:10179000E5E70020E3E7C046FF070000F0B54F464D
:1017A0004646D6464D00C0B50E03C90F8A462C49A1
:1017B0001F035C008046360B6D0D91463F0B640D98
:1017C000DB0F8D421ED08C4216D0002D1ED130432F
:1017D0008446002C01D13A4323D06246002A1AD015
:1017E0009A4529D0514602200139084001381CBCD5
:1017F00090469946A246F0BD39001143E5D002203B
:101800004042F4E73043FAD1AC420FD0002C0FD164
:101810003A43E7D00CE00122013B9343180001302A
:10182000E5E763460020002BE1D0DBE73A43E6D151
:101830009A45D7D1A542D5DCA54205DBBE42D1D819
:1018400008D00020BE42D2D250460123013898432E
:101850000130CCE7C845C5D80020C845F4D3C6E759
:10186000FF070000F0B54F464646D6464D00C0B5CE
:101870000E03C90F8A462E491F035C008046360BB3
:101880006D0D91463F0B640DDB0F8D4218D08C42DD
:1018900011D0002D18D130438446002C1ED13A437C
:1018A0001CD163460020002B30D051460220013964
:1018B000084001382AE039001143EAD0022025E02F
:1018C0003043FBD1AC4226D0002C26D13A4324D160
:1018D0005146022001390840013817E06246002ACB
:1018E0000FD09A45E1D1A54205DBBE42DDD819D023
:1018F0000020BE420AD250460123013898430130ED
:1019000004E00122013B9343180001301CBC9046C7
:101910009946A246F0BD3A43D0D19A45C5D1A542D9
:10192000C3DCE0E7C845C0D80020C845E3D3EDE7F5
:10193000FF070000F0B55746DE464E464546E0B587
:10194000834606000F03480087B092461D003F0BF8
:10195000400DCC0F002800D16FE0DE4B984238D00C
:101960008023FF001B041F43730F3B430193DA4B9B
:101970000027994600239B46F60081442B0369000B
:101980001B0B52469846490DED0F002900D185E00A
:10199000D04B994200D173E04346DA0080231B0408
:1019A00013435246CC48520F8446134352460020FC
:1019B0006144D20089442100694000918C46012194
:1019C00049448A460F2F00D990E0C449BF00CF593F
:1019D000BF465B463B43019300D06AE102230827E0
:1019E000002681469B46C9E732005846019B614666
:1019F0000091022800D175E0032800D1FEE1012802
:101A000000D02CE100230027002600253F032A0DEB
:101A10003F0BB34812053A4302401B051343009A9B
:101A20005B00D1075B080B433000190007B03CBCDA
:101A300090469946A246AB46F0BD5B463B430193B8
:101A400000D12FE1002F00D1A5E13800FEF7E2FE22
:101A500003000B3B1C2B00DD96E11D22D31A5A46D6
:101A60000100DA405E4608398F4013008E403B4348
:101A700001939C4B00271B1A994600239B467DE748
:101A8000414653460B4393498C46E144002B00D01A
:101A90001AE102220220174300228CE7134300D1EF
:101AA0000DE14346002B00D181E14046FEF7B2FE36
:101AB00002000B3A1C2A00DD72E10100434608399E
:101AC0008B4098461D239A1A5346D3401A0043462A
:101AD000134352468A404946081A8249894681443E
:101AE000002068E77B4B002700268EE7140C1204C9
:101AF000120C1100370C3604350C794328008C4643
:101B00002E0060436044834656432100300C8046DB
:101B10005846794340440291844506D9884680213D
:101B200049028C46E044414602913604010C360CD1
:101B300000048B4681191E0C1B041B0C0391190019
:101B400079438C46280075436544A8465843050CE4
:101B500045447743A94203D9802149028C46674412
:101B6000290C8C4639000004000C2D042D1861440A
:101B7000AB4405915946049101990F043F0C080CA0
:101B8000390051434243904602008C46090C8B4673
:101B900062437C4344445C44A04503D9802149020C
:101BA00088464244210C884661460904090C8C464B
:101BB00039005943434370437E430F0CF618240405
:101BC000BE19644442448C46B34203D980235B026D
:101BD00098464044029B61469846049B3704434420
:101BE0009B46AB45AD416B420D0405992D0C8C46CF
:101BF0007F196744FD18A8465D462D19A542A441EA
:101C000093466442A446C344DC448F42BF41984596
:101C10009B4193459241A445A4415B427F421F43AF
:101C2000360C52426442BF192243BF18624638182C
:101C30004302D20D039913436A020A43501E8241A4
:101C40006146ED0D2A434E023243D90100D4B3E080
:101C50000126500832400243DE0732435B08224C23
:101C60005444002C62DD510709D00F201040042895
:101C700005D0101D9042924152429B180200D9019A
:101C800004D580241948E400034054441848844291
:101C900000DD27E75E075B02D2081F0B63051643D2
:101CA0005B0DB2E6002399460133042700269B46CC
:101CB00064E60323019781460C279B465EE60122DA
:101CC00001201743002276E6032303201F434346E7
:101CD00071E6C046FF07000001FCFFFF2C26011043
:101CE000FFFF0F800DFCFFFFFF030000FFFFFFFE63
:101CF000FE0700000023802700933F030026434B8C
:101D000083E6019B3200A446584670E6AC466EE678
:101D1000802701993F0339422DD03B422BD11F43ED
:101D20003F033F0B00951600384B6EE601252D1B37
:101D3000382D00DD66E61F2D40DC35481C00504480
:101D4000160082408440EE40501E824134431443CA
:101D5000EB40620709D00F222240042A05D022005E
:101D6000141D9442804140421B181A023ED50123A3
:101D70000027002649E68027019B3F031F433F03BE
:101D80003F0B0094214B40E603005A46283B9A4003
:101D9000002601926DE65846FEF73CFD203057E6DE
:101DA00003005246283B9A401300002293E6504617
:101DB000FEF730FD20307BE6CA4650E71F201E00AC
:101DC0004042041BE640202D03D0124C5444A34053
:101DD0001A43501E8241324307260027164009D07D
:101DE0000F200023104014000428B9D122005E0700
:101DF0005B021F0BD2081643002306E680273F0331
:101E00001F433F033F0B1600004BFEE5FF0700009A
:101E10001E0400003E040000F8B557464E464546F5
:101E2000DE460C000903E0B5490A460F5F00314366
:101E30001E03DB0F760A9B46530F3343C84E6500E3
:101E4000C000E40FD2006D0DA24681467F0D9C4676
:101E50009046B74200D1B9E05B46012673409B46ED
:101E6000EE1BA34500D183E0002E63DD002F00D0E0
:101E7000B1E06346134300D123E1731E002B00D071
:101E8000BAE1861A6346B04280410125C91A404230
:101E9000091A0B0200D447E149024B0A984643460F
:101EA000002B00D189E14046FEF7B4FC0300083B5B
:101EB0001F2B00DD7CE120223000D21A4146D040A9
:101EC000994002009E400A439D4200DD6AE15D1B8D
:101ED0006B1C1F2B00DD94E1202110003500C91A76
:101EE0008E40DA408840DD40711E8E41110007228D
:101EF0002843002506433240002A09D00F233340EF
:101F0000042B05D0331DB342B641764289191E0019
:101F10000B0200D43DE26A1C914B55056D0D9A42AF
:101F200000D119E18F4AF6080A4057075202374399
:101F3000120B9BE0002E00D0C5E06E1C7605760DDE
:101F4000012E00DC48E16746861ACB1BB042BF4138
:101F50007F42B8461F004346FF1A3B00B8461B02AB
:101F600000D55FE137439AD100220024002579E0B3
:101F7000002E00DCFAE0002F00D18DE0784B9D426E
:101F800067D0802367461B041F43BC46382E00DC05
:101F900052E1634613435A1E93411E188642804104
:101FA000404209180B0200D4BEE06D4B01359D4242
:101FB00000D1D2E06B4A73080A4001210E401E4353
:101FC0005108D30707221E43324095E71E001643EF
:101FD00000D045E740E7624B9D423AD080236746F8
:101FE0001B041F43BC46382E00DDEBE01F2E00DC37
:101FF0003AE133006746203BDF403B00202E05D00E
:102000004027BF1B6646BE40324390464646721E7E
:1020100096413343DAE0002B00D114E263461343C8
:1020200000D168E180234E07C008C9081B0306439E
:10203000194208D06046C008184204D16346010026
:10204000D2085E071643F3009946C900720F444D4B
:1020500011434B46DE08424B4F073743CA089D42A7
:1020600000D16EE012036D05120B6D0D00211203FD
:10207000130B0A0D12051A433B4B2D0513402B433E
:102080005B00E4075B082343380019003CBC904622
:102090009946A246AB46F8BD6346134311D0731E62
:1020A000002B00D007E186188642804161444042FF
:1020B000091801250B0237D502257BE73E00614652
:1020C00091463500C5E75C46002D00D0E1E00B00ED
:1020D0000343F3D0731C00D1ACE1214B9F4200D1EC
:1020E0003AE1F343382B00DD6FE11F2B00DD8CE17B
:1020F00020250E00ED1AAE40B0460600AA46DE408E
:10210000454635432E005546D940A8406346451EF6
:10211000A8415B1A9C463043161AB242924163466C
:102120005242991A3D00B4E607223240002A00D0FC
:10213000E4E60B4BF6084F073743CA089D4200D030
:1021400090E73B00134300D1A6E180231B031A4311
:102150001203120B024D89E715000022002785E7C4
:10216000FF070000FFFF7FFFFFFF0F80002E00D062
:10217000C7E06B1C5E05760D012E00DCF0E0C84D5B
:10218000AB4200D1B9E085180A008542894162441A
:10219000494251180722CE076D082E4349083240A4
:1021A0001D00A9E6BF49ED1A114007223240A3E6FF
:1021B000320028388240002686E63000FEF72AFBEF
:1021C000203073E6634613435A1E9341C61AB04249
:1021D00080414042091A5CE60E00674606431743F9
:1021E000002D5ED1002E00D0F3E0002F00D11EE1C3
:1021F0005C46614691462CE7A94FBE427BD01E004B
:10220000F1E610001F3DE840202B03D04021CB1AFF
:102210009A401643731E9E41072206433240002116
:10222000002583E7161A6346B2428041591A40429C
:102230000B1A98465C4632E61F2E00DDABE02027E5
:10224000BB1B9A4663465746BB40994613004F4610
:10225000F3401F433B005746BA40571EBA41134351
:102260006246F240891898E62027BB1B9A466346CF
:102270005746BB40994613004F46F3401F433B006F
:102280005746BA40571EBA4113436246F240891A74
:102290009CE7834B9F425FD080252D0473422943E6
:1022A00020E7002E0CD1002F00D1D0E05C46614623
:1022B00091467B4DCDE67A4FBE421CD01E0065E6AE
:1022C000002F18D0C0084E0706438020C90800031D
:1022D000014208D06346DC08044204D12100DA46FA
:1022E000D2085E071643F300994601245346C900FD
:1022F000720F11431C406A4DABE61D0000220027FF
:10230000B4E6002D59D10B00034300D1D6E6731C6F
:1023100000D1B2E0624B9F421ED0F343382B6FDCFA
:102320001F2B00DD97E020250E00ED1AAE40B046D1
:102330000600AA46DE40454635432E005546A840D5
:10234000D940451EA8418C440643B6189642924196
:10235000514261443D0025E63D006146914678E6E4
:102360000B000343002D00D055E6002BF5D063464B
:10237000134300D16DE68618864280416144404295
:10238000091800220B0200D4D0E6464B0135194053
:10239000B2E5B1465DE633006746203BDF403B00D7
:1023A000202E05D04027BF1B6646BE4032439046D4
:1023B0004646721E96413343EFE5394B9F42CBD0E0
:1023C00080252D0473422943A8E70843411E884114
:1023D000A2E6002F00D13CE66346861ACF1AB0422F
:1023E0009B415B42FB1A98461B024ED5161A634668
:1023F000B2429241591A5242891A5C4600227BE548
:1024000001430E00711E8E419FE71D000E00203D0E
:10241000EE40B046202B04D04025EB1A99400843EB
:10242000814648464346411E8841184374E60022CF
:10243000002417E6161A6346B2429241591A5242D4
:10244000891A3D0025E561469146154D01E6802239
:102450000024120379E61D000E00203DEE40B04638
:10246000202B04D04025EB1A9940084381464E4664
:102470004346711E8E411E4367E7861896429B4174
:1024800061445B42C9183D008CE547463743CED0D6
:1024900007224146324049E600273A00E6E5C046B9
:1024A000FF070000FFFF7FFF70B50C4E0D031C03FC
:1024B00049005B002D0B490D240B5B0DB14208D088
:1024C000064900208B4203D114432000441EA04142
:1024D00070BD05430120002DFAD1F1E7FF07000090
:1024E00030B5144D0A034B00120B5B0DC90F0024CD
:1024F000AB4211DD104CA34210DC80246403224364
:102500000E4CE41A1F2C0CDD0D48C31ADA401300E0
:102510005C42002900D11C00200030BD094BCC18C2
:10252000FAE7094DE040AC4663449A401300034388
:10253000EEE7C046FE0300001D0400003304000067
:1025400013040000FFFFFF7FEDFBFFFF70B50028C5
:102550002DD0C317C5185D40C40F2800FEF75AF9E7
:10256000154B1B1A5B055B0D0A2815DD0B388540E2
:1025700000222D032D0B002110002D030A0D2D0B21
:1025800012052A430D4D1B052A4013435B00E40747
:102590005B082343190070BD0200290015329140E9
:1025A0000A000B21081AC5402D032D0BE3E7002478
:1025B000002300250022DEE71E040000FFFF0F803D
:1025C00010B5041E25D0FEF725F9144B1B1A5B0528
:1025D0005B0D0A2812DD0B38844000222403240BF3
:1025E0000021100024030A0D240B120522430C4C79
:1025F0001B05224013435B00590810BD0200210057
:10260000153291400A000B21081AC4402403240B00
:10261000E6E7002300240022E2E7C0461E04000093
:10262000FFFF0F8010B5002903D1FEF7F3F820302B
:1026300002E0081CFEF7EEF810BDC046F0B54E46AD
:102640005746DE464546E0B50F00002183B0060040
:102650008946002F06DA3900002746428F410121C2
:1026600049428946002B07DA4946C943100089468A
:102670001900002342428B4134003D0092469846A7
:10268000BB4269D866D041465046FFF7CBFF834630
:1026900039003000FFF7C6FF5B461B1A9C46203B03
:1026A0009B4600D575E05146584681400B00514687
:1026B000604681400A00BB4261D85ED034003D00D4
:1026C0005946A41A9D41002900DA7AE00021002031
:1026D00001260090019159468E40019661460126DF
:1026E0008E4061460096002950D0D90756085F08F1
:1026F0000E4363460EE0AF4201D1A6420CD8A41BA4
:10270000BD41012124196D410022013B641855414E
:10271000002B06D0AF42EED9013B24196D41002BAE
:10272000F8D1009801995B4600196941002B3DDB07
:102730002E00DE4063462C00DC405B46002B4BDB6A
:1027400034005D46AC4023006446A6403200801A47
:10275000994103E0B24296D9002000214B46002B5C
:1027600004D003000C0000215842A14103B03CBC3E
:1027700090469946A246AB46F0BDB1429ED9002193
:1027800000200090019161460029AED10098019986
:10279000E4E72023624651469B1AD9404046009107
:1027A00061468840030000990B4380E7624620237E
:1027B0009B1A2A009A40260013006246D6401E4308
:1027C000B8E7614620260127761A00200021F7404D
:1027D00000900191019781E767462023624635000A
:1027E000BC409B1ADD4023002B43ADE7024670B589
:1027F0000A4392072AD11E4DEE0104C808C9541B92
:102800009443344017D0D0B2D9B2401A21060143C4
:1028100010D190B299B2401A210401430AD110029A
:102820001902000A090A401A2102014302D1100EBE
:10283000190E401A70BD9A42DFD010BA19BA8842F8
:1028400001D9012070BD0020C04370BD02780B7813
:1028500001300131002A09D09A4207D102780B7861
:1028600001300131002A01D09A42EFD0D01A70BD58
:042870000101010160
:022874007047AB
:022876007047A9
:1028780070B5104C10492068104A114B88420FD18E
:10288800606890420CD1A068984209D100250D4893
:10289800256008F0C7FE03008020290080049847BF
:1028A800216009480021A360626008F04DFD002303
:1028B800236070BDB80F0020DE8116F0299B72BD21
:0C28C8007ABE59D355420000A0860100E2
:1028D4000B00F0B50F2700260E33023902003A40F0
:1028E400D5B22C0000093034092A00DD07341C70ED
:0A28F4005E70023B9942F1D1F0BD85
:0428FE001E207047E1
:0229020070471C
:1029040013B50400684608F0CDF921000098FFF7DC
:10291400DFFF210001981031FFF7DAFF202016BDF8
:10292400C82310B50124054A5B00D35E04489C40CB
:1029340008F07AFE0021030020009847F4010020EB
:0429440055420000F8
:022948007047D6
:0A294A0010B50C220AF0A1FC10BD2C
:0E295400C36810B5002B01D09B68984710BDDA
:04296200002070479A
:102968009C2370B55B00C35C05001400002B1CD1D0
:102978000368DB699847F0210C4B09012140C9180D
:102988004B1E9941F0232340303B5A4253410F22BA
:102998000731144001330D3A012C02D0023C624247
:1029A8006241A869006803F0E8FE70BD00FDFFFF02
:1029B8009C2310B55B00C35C0400002B05D1A36900
:0C29C800186803F00AFF0028F9D010BDC9
:1029D4009C2370B55B00C55C0400002D14D1836991
:1029E400002B0CD01868002809D00368DB689847CE
:1029F400A36904211D60A06907F044F9A5610023BF
:0A2A0400FC34E3622363636370BDDA
:102A0E009C23F7B55B00C35C0400002B2AD1802504
:102A1E00FF276D00A369186803F0C0FE002821D0BF
:102A2E0006F05FFCA369012218686B46DE1D036881
:102A3E0031005B6998472300FC335A6BAA420ED0D3
:102A4E005A6BAA420BD02200D96A307828325054E1
:102A5E00DA6A01323A40DA625A6B01325A6306F090
:062A6E0056FCD7E7F7BD9E
:102A74007FB59C235B00C35C04000D00002B37D1A1
:102A84008669002E04D1042007F0CCF8A06106600A
:102A9400A369186800282CD1783007F0C3F8060021
:102AA4002223E25E2023E15E2B0004F029F9A369CE
:102AB4001E602423E25E531C06D0A0692621635EB7
:102AC4000068032104F02AF9A369186800280FD0CC
:102AD40000220A4B69460393094B00940193029226
:102AE40003F098FE039B002B02D09B68684698472E
:102AF4007FBD290003F032FEDBE7C0466C260110DF
:042B04000F2A001084
:102B080010B582684368006851104018D20701D593
:082B18000268D358984710BD74
:102B20009C2210B552000300805C002806D00120D2
:102B300001F0F0FB054801F00DFB10BD9B69002B77
:102B4000FBD01868431E9841C0B2F6E734950020C8
:102B500010B50400FFF7D3FE844203D2034B2401D7
:102B6000E05E10BD01204042FBE7C046F4010020BA
:102B700070B504000D0001F0EDFA0300002083425F
:102B800004D0236829001B6C2000984770BD08B44E
:102B9000024B9C46024BC01A08BC6047712B0010C8
:042BA00040010000F0
:102BA40037B56B46DC1D9C2321705B00C35C0500BC
:102BB400002B04D0C9B20A48FFF7D8FF3EBDAB6969
:102BC400186803F00CFE0028F9D0AB6901221868DC
:102BD400210003681B6998470130431E9841EDE7C3
:042BE4003495002004
:102BE800F7B5060001911700002401F0AFFAA042E2
:102BF8000DD0A7420BD93D1B402D00D94025019B84
:102C08002A001919300000F007FF6419F1E72000C5
:102C1800FEBD08B4024B9C46024BC01A08BC604774
:082C2800E92B0010400100003F
:102C30009C2370B55B00C35C05000E001400002BE4
:102C400005D00F48FFF7D0FF0400200070BDAB692E
:102C5000186803F0C6FD0028F9D0AB6901211B6894
:102C600018005B6F74301B6B9847AB6922001868C3
:102C7000310003681B699847431CE6D10024E4E750
:042C80003495002067
:102C8400F0B5C3B0050001F0CBF9932380229B007B
:102C9400E918CB6852000400D31A984201DDCC68CD
:102CA400141B01AB220002A92800A82600F0B3FFE0
:102CB4000021019802AB241A76001C199323802268
:102CC4009B00EB18DF685200974211D081420FD06D
:102CD400DF6897420AD05A68675CAA1897555A6801
:102CE4000132D2B25A60DA680132DA600131E5E7C2
:042CF40043B0F0BD3C
:102CF80070B5040000F01EFB2000FFF7BFFF932310
:102D08009B00E318DD68200000F01BFB280070BD65
:102D180008B4034B9C46034BC01A08BC6047C04626
:082D2800F92C0010400100002D
:102D30009C2310B55B00C35C0400002B05D0064843
:102D4000FFF7DAFF0400200010BDFC3406F0D0FAD3
:0C2D5000646B06F0E3FAF6E7349500200F
:102D5C0070B5040000F0ECFA2000FFF78DFF932310
:102D6C009B00E318DA68002A09D0A8229B6852005D
:102D7C00E3189D5C200000F0E2FA280070BD0125EC
:102D8C006D42F7E708B4034B9C46034BC01A08BCD2
:0C2D9C006047C0465D2D001040010000A3
:102DA8009C2310B55B00C35C0400002B05D00B48C6
:102DB800FFF7D0FF0400200010BD06F095FA2300AD
:102DC800FC335A6B002A05D01B6B2834E45C06F0F0
:102DD800A1FAF0E701246442F9E7C04634950020DF
:102DE80070B5040000F0A6FA2000FFF747FF932310
:102DF8009B00E318DA68002A10D0A8219A684900D5
:102E0800A218555C9A680132D2B29A60DA68013A1F
:102E1800DA60200000F095FA280070BD01256D42A7
:102E2800F7E708B4024B9C46024BC01A08BC60473F
:082E3800E92D0010400100002B
:102E40009C2310B55B00C35C0400002B05D00E482A
:102E5000FFF7CAFF0400200010BD06F049FA230066
:102E6000FC335A6B002A0CD01A6B2834A45C1A6B02
:102E70000132D2B21A635A6B013A5A6306F04EFA23
:0C2E8000E9E701246442F9E734950020E2
:102E8C00802210B50400520000210AF08FFA2300B2
:0E2E9C000022FC335A6020009A60DA6010BDFC
:102EAC00F7B51A4B1A4DFA260024083300932B6001
:102EBC002023B600AE606C6016486B61AC61EC61AF
:102ECC00FFF7DEFF9C22012752002000AF54FFF7D2
:102EDC0039FE01903800FFF735FE20230E4D009986
:102EEC006B616B469B88AE602B84012368845B42CC
:102EFC006C600A482960AC61EC61AB84EB84FFF731
:102F0C00BFFF9C225200AC54F7BDC046782601107E
:102F1C002899002050990020EC970020149800204C
:042F2C0000207047CA
:022F30007047E8
:022F32007047E6
:102F340010B5054BC458002C05D0236820005B68ED
:0C2F44009847A468F7E710BD8C0500005A
:102F500070B50D00054BC458002C06D02368200026
:102F60009B6829009847A468F6E770BD8C050000AF
:082F70000048704748270110DA
:102F780010B50400044B036005F0B4FA200005F016
:0C2F8800CBFA200010BDC046C826011086
:102F940010B50400FFF7EEFFB2212000C90006F0CF
:062FA40071FE200010BDCB
:102FAC00F0B50F4B0500C458002385B0019102AA5F
:102FBC00D61C002C12D023680199DF68320003ABB9
:102FCC002000B84731780300042905D0039A280063
:102FDC0004F064FC05B0F0BDA468E8E73178F5E7CF
:042FEC008C05000050
:102FF00070B50E0005000021002A0CD10A4BC45800
:10300000002C0ED0236800221B6931002000984755
:10301000002804D00121280004F004FA70BDA4683F
:0C302000EEE72100F7E7C0468C05000039
:10302C0070B50E0005000021074BC458002C07D0CA
:10303C002368310020005B699847A4680100F5E71C
:0C304C00280004F0FBFA70BD8C050000A9
:10305800F8B505000E001700084BC458002C07D01F
:10306800236820009B693A0031009847A468F5E777
:103078002800012104F052FBF8BDC0468C05000071
:10308800F0B5002187B0040004F04AFE6B46002228
:10309800DA80238901A9A588E28889260B731B0A8F
:1030A8004B730F4BEF27CB81042376000E80113E24
:1030B800FF3ECE704E710D728A72FF330A34013EA4
:1030C8002D0A120AC871CA720F718E714D720B8265
:1030D800122220000AF0DAF8200007B0F0BDC0463E
:0430E80001020000E1
:1030EC00F8B506000C000500002730000AF052FC71
:1030FC00AB1B984205D92B786770237001350234CD
:08310C00F3E74000C0B2F8BD7A
:1031140070B504000C4BC558002D07D02B6828004F
:103124001B6A9847002802D1AD68F5E72800A92555
:10313400064BED006353064BE118FFF7D5FF635DC3
:10314400C0186055601970BD8C05000002030000B2
:043154004A05000028
:1031580070B5A125064BED004353064B0400C1187A
:103168000548FFF7BFFF635DC0186055601970BD63
:0C317800020300000A050000AC26011054
:1031840070B59925064BED004353064B0400C01857
:10319400FFF7B6FB635DC0186055601970BDC0468B
:0831A40002030000CA04000050
:1031AC000023F0B587B003A98B71B123DB00C35C9E
:1031BC0005000B7101234B71BF33CB713A330B728A
:1031CC00CE2309249B00154AC71803923800092204
:1031DC000AF05AF8124BEE58002E17D03368002123
:1031EC001B6830009847C37882781B021343093B55
:1031FC000193CE2301009B00E01828180931019A95
:10320C000AF042F8019BB668E418E5E73800054B74
:10321C00EC54054B2412EC5407B0F0BD0902FFFF2F
:0C322C008C0500003A0300003B0300008A
:1032380073B504000D00160007F03EFB80235B0009
:10324800010000932A003300200004F023FD024B04
:0C3258002000236076BDC046C82601108F
:1032640010B50E4A04008358002B12D18150B123AB
:10327400DB00E25C48790A71E25C1218E2540B68E4
:1032840008005B6A9847238918182081012010BD23
:1032940013009A68002AFBD19960E8E78C050000C6
:1032A4001FB5040004F0F0FC0100684603F0FCFDC7
:1032B4004021684603F06EFE074BE458002C06D00C
:1032C40023682000DB6969469847A468F6E76846E6
:0C32D40003F0F1FD1FBDC0468C0500009A
:1032E00010B50400FFF7DEFF200004F033FC10BD32
:1032F00070B50D4D2B78BFF35B8F0C4CDB0711D4F1
:10330000280006F089FA00280CD0C02208492000C5
:10331000FFF792FF280006F0A1FA064A06492000AE
:1033200006F066FA200070BD689A0020E89C002034
:0C3330008A2E0000F0010020792F001010
:0E333C0010B5FFF7D7FF03685B6F984710BD11
:0E334A0010B5FFF7D0FF03689B6F984710BDCA
:0E33580010B5FFF7C9FF0368DB6F984710BD83
:0833660010B503F050FF10BD8B
:08336E0010B503F006FF10BDCD
:0833760010B503F036FF10BD95
:02337E00704796
:02338000704794
:02338200704792
:08338400436A783318787047A2
:06338C00FC30806A70476E
:04339200012070475F
:0833980000487047A428011051
:1033A000F0B505009BB007AC4B220F0020000021B8
:1033B0000AF002F82B00FC339B6A05215A1E934148
:1033C00000202E795B421940731CDBB20193AB7B6A
:1033D00002932B7B03936B7B0493874200D0A5E081
:1033E0006176534906A86183102161770B39E17733
:1033F0002421471D0922F9772527627406A8053A7A
:10340000C019A274033A027006A8C71D0320494BD5
:10341000F8772380BF3BFF3BA370812308AFFA7787
:1034200004275B00A380823BE37162754E3B2276EA
:10343000A27706A80832121823722A3BD777637244
:103440000A220333A3723C4B06A8A381022312185D
:10345000D1770591073706A97F18FB770627052145
:1034600009A8C77711A801702D2006A940182421AA
:10347000E672A373E674A375E37501702E2006A9A6
:10348000401807702F204018694606700E7912A860
:1034900006703126072006A9761830703226761875
:1034A00005213170332606A9761869460F7A06A9D8
:1034B0003770224E10272686372676183770092750
:1034C00014AE377039260427761837703A267618E6
:1034D00069460F7906A93770194E1D352687412692
:1034E000761830703B30401805210170432106A842
:1034F000091868464426007B0870124906A88019FE
:10350000018011492800D1874A2206A9521869462C
:10351000097C11704B2206A952181370402219AB76
:103520001A7021000B3209F0B5FE28001BB0F0BD67
:103530000524000009020000020200000340000010
:0C354000020A0000024000000705000025
:10354C0010B504000A4B08330360FFF7CBFE04F000
:10355C00C7FF2000D03003F0B2FD20007C3003F018
:10356C00AEFD2000703003F0AAFD200010BDC04657
:04357C005C280110B6
:1035800010B50400FFF7E2FF94212000490006F087
:063590007BFB200010BDD2
:0835960010B5FFF7DEFE10BDC9
:1035A00010B50400024B036003F0FCFB200010BDCB
:0435B000902701104F
:1035B40010B50400FFF7F2FF2000282106F062FB9B
:0435C400200010BD16
:1035C80010B50400024B036003F0E8FB200010BDB7
:0435D8006027011057
:1035DC0010B50400FFF7F2FF2000342106F04EFB7B
:0435EC00200010BDEE
:1035F00010B50400024B036003F0D4FB200010BDA3
:043600007827011016
:1036040010B50400FFF7F2FF2000382106F03AFB62
:04361400200010BDC5
:1036180070B50D000400072217490F3009F036FE77
:1036280040220221280003F0A5FC40222073022139
:10363800280003F0A6FC402260730321280003F051
:1036480099FCA073280003F035FC002804D1AF22B0
:103658000A490B4805F09AFD220021000023783220
:1036680085311165536513701373D934503213744F
:103678005465936570BDC046AC270110E82701105A
:0436880049280110BC
:10368C00F0B504000E0087B01500FFF75FFEF2885E
:10369C0023799A4236D1002D34D173780593012BBE
:1036AC002DD1F378202B26D13789072F23D1230056
:1036BC000F33039307333A0019000398049309F06E
:1036CC00BDFD059D002816D03A000499039809F019
:1036DC00DBFD217CE07B09020918607CE77C00049F
:1036EC000918A07C0097000609182068237D476BF9
:1036FC00627D2000B847F378212B00D101252800EA
:08370C0007B0F0BD0025FAE74B
:1037140070B50400FFF71EFEFFF7E8FD217B04F0FF
:1037240063FD23002200C833853225001A6020007F
:1037340000234732843513607C302B7003F07BFC0C
:103744002B78002B03D123682000DB6B984770BDD6
:1037540070B504002500FC35FFF7FCFD6E6A002EF1
:1037640005D0DE220E49FF320E4805F011FD23007C
:10377400D9332B62FFF7BAFD617B04F08BFC6862DE
:1037840025002000D8352E70D03003F054FC2B785F
:10379400002B03D1236820009B6B984770BDC04663
:0837A400E8270110B82701100D
:1037AC0010B582684368006851104018D20701D5E3
:0837BC000268D358984710BDC4
:1037C400F0B50400002687B002ADFFF7C3FDFFF794
:1037D4008DFDA17B032340220095059604F0D4F9C6
:1037E4002800FFF7B5F8FFF781FD164F164B217B34
:1037F4004022EF600393009502230294049604F0A0
:10380400C3F92800FFF7A4F8FFF770FD0F4B617BA5
:103814004022EF600393009502230294049604F07F
:10382400B3F92800FFF794F8FFF760FD2200FC329B
:10383400617B4023126A04F0CDFB0120D834207050
:1038440007B0F0BDA0270110153700105537001040
:10385400022370B543710023040083600C4B1500F0
:1038640008330360703003F0D9FB20007C3003F090
:10387400D5FB2000D03003F0D1FB2300FC339D6244
:10388400FFF734FD2100FFF7EBFC200070BDC046BC
:043894005C2801109B
:1038980070B504000D00FFF75BFD230078331D7041
:1038A800002D42D1260084363378002B05D0FFF74F
:1038B8001BFD217B04F050FA3570230022002500FF
:1038C8000026C83385327C3528001A605E6003F014
:1038D800B0FB280003F0A6FBB04205D1A22215498F
:1038E8001548520005F052FC2500D8352B78002BDE
:1038F80005D0FFF7F9FC217B04F02EFA2E70230087
:103908002200FC33D93225001A620022D035280063
:103918005A6203F08EFB280003F084FB002804D1D0
:10392800A722044952000548DCE72000703003F064
:1039380080FB70BDE8270110C6270110D7270110AA
:1039480010B50400FFF704FD00212000FFF7A0FFD9
:0239580010BDA0
:10395A0070B50D000400FFF7FAFC042D03D0002116
:08396A002000FFF794FF70BD7F
:10397200F8B5040016000D001F00FFF7ECFC04234D
:103982003370EA88237900209A4210D16A78012A9A
:103992000DD1EB78212B06D0222B09D0202B19D167
:1039A2003070163401E032700F3407203C60F8BDED
:1039B200A988114000D011002000FFF76CFF0122FE
:1039C200AB8800201340E366AB8892181340A366CD
:0A39D2003270ECE703233370E9E7DD
:1039DC0010B504008AB0FFF7ABFC684603F0D0F9D1
:1039EC0020000A4B694670300093099403F036FBB3
:1039FC002000FFF7A4FC064B00211A68684603F070
:103A0C0013FA6846FFF7C6FD0AB010BD90270110E7
:043A1C00B4270110BA
:103A200070B504000E008EB01500FFF787FC01A8EA
:103A300003F0ACF920000B9600260D4B01A90C9564
:103A40007C300DAD01930A942E7003F00DFB200025
:103A5000FFF77BFC074B31001A6801A803F0EAF975
:103A60002C7801A8FFF7B0FD20000EB070BDC04655
:083A700060270110B4270110CA
:103A780070B5040025008435FFF76AFC2B78002B0D
:103A880010D12600CC363368002B0BD0FFF72CFC66
:103A98002200217B8532336804F03CFB002801D0EA
:063AA80001232B7070BD2C
:103AAE00F0B585B01F000AAB1B780400039302919A
:103ABE000192FFF73CFC00233B60230078331B7818
:103ACE00002B21D0230084331B78002B1CD1260021
:103ADE004025CC363368ED1A019B9D4200D91D005E
:103AEE00019B002B06D02300C83318682A000299C8
:103AFE0009F0C9FB33685B193360039B3D60002BF3
:103B0E0002D02000FFF7B1FF2000FFF717FC05B031
:023B1E00F0BDF8
:103B2000F0B50400406A85B0030078331D780126A3
:103B3000002D05D1303425703500280005B0F0BDCA
:103B40000027009603ABE26AA16A0397FFF7AFFF75
:103B5000039AE36AA16A9B1A8A18E362A262BB42D3
:103B600002D130342670E8E7606AFFF785FF3D0038
:023B7000E3E789
:103B7400F0B51C0093B0019205000F00FFF7DCFBC9
:103B840063426341DBB20093002C00D103AC0026F6
:103B940004A8266003F0F8F86A46109428003D242F
:103BA4000F4B12780493019B04A90F9311AB1A7065
:103BB40002ABE418D03026700D950E9703F052FA3C
:103BC4002800FFF7C0FB074B31001A6804A803F074
:103BD4002FF9247804A8FFF709FD200013B0F0BDE5
:083BE40078270110B42701103D
:103BEC00030070B5FC335B6A0400002B0ED105009A
:103BFC00D8352B78002B09D1FFF774FB220040231A
:0E3C0C00D932617B04F0E2F901232B7070BD08
:103C1A00F8B506001F0000233B60330078331B7899
:103C2A000800002B19D03300D8331B78002B14D18D
:103C3A003400FC34656A954200D915002A00216ACD
:103C4A0009F023FB3D60236A5B192362636A5D1BEB
:0C3C5A00656202D13000FFF7C4FFF8BD26
:103C660037B50400406A030078331D78002D04D16F
:103C760035342570013528003EBD0023E26A0193E4
:103C8600A16A01ABFFF7C6FF019BA26AD218A26226
:103C9600226B1168CB181360E36A01995B1A210045
:103CA600E36234310978002902D11268002A01D171
:103CB600002B03D1012335342370DCE7606AFFF75C
:063CC60092FF0025D7E784
:063CCC0016204042704783
:0A3CD2000020814200D1193870472C
:043CDC00012070470C
:063CE0001620404270476F
:063CE60016204042704769
:043CEC0011207047EC
:023CF00070471B
:023CF200704719
:023CF400704717
:103CF80010B503689B6C984710BD08B4024B9C46EE
:103D0800024BC01A08BC6047F93C00104001000093
:043D18007047704739
:043D1C007047704735
:083D200010B50368984710BDBF
:103D280010B504000120783400F0F0FA207810BDB6
:103D380008B4034B9C46034BC01A08BC6047C046F6
:083D4800293D001040010000BC
:103D5000012270B501235242FF210B4806F030F9D1
:103D600000F0C8FA0500094C78342378002B03D002
:103D7000012000F0CFFAF8E700F0BCFA401BC7289A
:103D8000F6D9FEF7CFFD70BD089B002034950020CA
:103D900007B50122019101A9FFF742FE002801D0D9
:0A3DA00001980EBD01204042FBE730
:103DAC0008B4034B9C46034BC01A08BC6047C04682
:083DBC00913D001028010000F8
:103DC40013B56B46DC1D0023012221002370FFF78D
:103DD400CFFE002801D0207816BD01204042FBE729
:103DE40008B4034B9C46034BC01A08BC6047C0464A
:083DF400C53D0010280100008C
:103DFC00F7B5040001930E001500FFF7A7FA9C23FA
:103E0C009B00E758002F04D0089B019A2900300032
:103E1C00B84798239B00E650019A0433E5500433CD
:0A3E2C00E250089A0433E250F7BD9B
:103E3600F8B50600FFF78DFA9D23AD2700259B00F8
:103E4600F418BF00F359AB4209D920001034231FE0
:103E56001B68002B03D01B6898470135F2E7F8BDB5
:103E6800962310B5DB00984203D10121014806F0E2
:083E780085F810BD089B002035
:103E800010B582684368006851104018D20701D508
:083E90000268D358984710BDE9
:103E9800104B70B5036003000F4AFC33DA620F4A17
:103EA80004001A630E4A5A649D239B00C6184033C7
:103EB800C518AE4204D0103D2800FEF747FDF8E7CC
:103EC80020002930FF3004F0BDFF2000FFF73AFB47
:103ED800200070BDE42801105C290110BC290110E4
:043EE800CC290110D0
:103EEC0008B4034B9C46034BC01A08BC6047C04641
:083EFC00993E001028010000AE
:103F040008B4034B9C46034BC01A08BC6047C04628
:083F1400993E00102C01000091
:103F1C0010B50400FFF7BAFFAE212000890005F0B0
:063F2C00ADFE200010BDF7
:103F340008B4034B9C46034BC01A08BC6047C046F8
:083F44001D3F00102C010000DC
:103F4C0008B4034B9C46034BC01A08BC6047C046E0
:083F5C001D3F001028010000C8
:103F6400F0B585B003930AAB1E880BAB04001F8821
:103F74000D00029206F0A2FC039B0100029A009637
:103F840001972000FFF764FC200029300021FF3056
:103F940004F02EFF2300FA2200264133FF3392005F
:103FA4009A605E601A4B1B4A23602300FC33DA627A
:103FB400194A20001A63194A51305A648022FF308A
:103FC4005200310009F0F6F993239B00E3185E6078
:103FD4009E60DE609D239B00E318DE60A1239B00AE
:103FE400E318DE60A5239B00E318DE60A9239B0091
:103FF400E318DE60AD239B00E650443BE650B54237
:1040040002D02000FFF7E8FC200005B0F0BDC04658
:10401400E42801105C290110BC290110CC290110ED
:1040240070B50500FFF788F92B000024D8331B78FE
:10403400A34205D12B00FC335C6A402C00D94024F8
:0A4044002800FFF780F9200070BD8E
:1040500070B586B00400FFF771F99C23304A9B00CD
:10406000E2502000FFF771F92E4B200005932E4BF4
:104070000294039300230493FFF760F9AD239B00A0
:10408000E558032D15D86A1CE2502E01403BF61866
:10409000A6193000FEF75EFCA0222D01059B6519D4
:1040A0009200AD182B60002B03D05B6802A9300092
:1040B00098472000FFF749F902A8FEF74BFCBC2007
:1040C00005F0B2FD00260500184B310003600661C3
:1040D000403006F001F82800543005F099FF8022A6
:1040E000134B2800009352003300182106F090F87B
:1040F00097239B00E5500F4B082205930E4B310090
:1041000003A8029309F058F902A9280006F08AF8DA
:1041100002A8FEF71FFC2000FEF7B4FD06B070BD3C
:10412000693E0010BC280110852C0010B83D01101C
:0C413000D4280110C8280110513D0010D7
:10413C0008B4034B9C46034BC01A08BC6047C046EE
:08414C00514000104001000089
:064154007830007870478E
:10415C0037B50E4C200005F005FF0D4D0D492A001A
:10416C00200005F03FFB012201920B4AF82300923C
:10417C0000220A4C5B0111002000FFF7EDFE2A0023
:10418C000749200005F02EFB37BDC046089B0020D8
:10419C00F00100208F9F00101220000034950020A9
:0441AC00993E001028
:0641B00010B507F025FD2B
:1041B600F7B5C31D0193002306000D00041D0093EF
:1041C60021780A22280000F06CF82E21070028002A
:1041D60000F032F8009B3F18DB190093019B013475
:1041E6009C42EDD1F17928000A2200F05AF8009B92
:0441F6001818FEBDDA
:1041FC00034B044A08331360002353607047C046D6
:08420C00F8290110509B00206D
:1042140070B5040008000D0009F0C0FB236802001B
:0A42240029005B682000984770BD78
:10422E0010B50B1E02D0FFF7EEFF0300180010BDF5
:0A423E0010B503681B68984710BD17
:10424800F0B58BB06B461500002205330600DA770F
:104258000800012D00D80A2509AC2900FCF790F9BF
:10426800CAB2130037330700DBB2092902D813009A
:104278003033DBB2013C2370002FEED12100300037
:08428800FFF7D1FF0BB0F0BD00
:1042900010B5002A04D10368C9B21B68984710BD45
:0842A000D2B2FFF7D1FFFAE7EB
:0842A80010B5FFF7F1FF10BD96
:1042B00010B500F033F8FEF724FBFFF719F8FFF70D
:1042C0000FF8E12106484902FFF7C2FEFEF7D2FAD5
:1042D000FEF7D1FA034B002BFAD000E000BFF7E75E
:0842E0003495002000000000ED
:0C42E80010B5040002F0C8FB200010BD5F
:1042F40007B50649684602F000FC00980199FA22C5
:1043040000239200FCF7A2FA0EBDC046C80F00209D
:0843140010B505F013FF10BD08
:10431C0010B5044C200002F0B9FB200002F0B6FBF3
:08432C0010BDC046C80F0020BF
:1043340010B5054C200002F01DFC044A044920007D
:1043440005F054FA10BDC046C80F0020F00100204B
:04435400E94200102A
:10435800010010B5002807D10420404200F0D1F92F
:1043680004235B42180010BD132001F0C1FD002397
:104378009842F7D10120404200F0C3F90123F0E749
:1043880080B5EFF30583002B03D1EFF31083002BE7
:1043980006D00620404200F0B4F90620404280BD15
:0C43A800014F00DFFBE7C0465943001046
:1043B40070B500282CD084680568002C0FD0032227
:1043C40023001340144202D1C2680F2A15D80921D0
:1043D4000020494202F034F80024200070BDC36874
:1043E400002BF4D1114B1A0090321068002811D020
:1043F40000F04AFB041E14D00123F322A37000230F
:104404002270A360E3600A4A084B65605A66E4E7D9
:104414000500E7E7043301221021D86F00F0B7FA52
:10442400E8E70521494202F00BF8D6E7D40300205F
:04443400014500102E
:1044380070B5041E02D00378F32B08D004212000A5
:104448000425494201F0FAFF6D42280070BD8368D7
:10445800002B0DD003256D42200001F00FFB002238
:10446800290001F0A3FCA0680028F5D101F07AFB2F
:104478000025A3782570DB07E7D5084B1A00903292
:104488001068A84203D0210000F00EFBDDE70433DA
:104498002100D86F00F0AFFAD7E7C046D403002058
:1044A80070B50300022510000124284014402A4258
:1044B80014D1EFF3108672B6DA6815000D40002C9F
:1044C80006D0A94206D110008843D860100001E048
:1044D800281EF8D1002E00D162B670BDD8680B0036
:1044E8000340002C03D09942F7D00020F5E75A1E6C
:0844F80093415B421840F0E71C
:10450000F8B505008468002C00D1F8BD231D2800F3
:10451000DA7F616AA768FFF7C7FF061E07D0200091
:1045200001F0BAFA00223100200001F043FC3C0007
:02453000E9E7B9
:10453400F8B504000D0016001F00002804D003780D
:10454400F32B01D1002907DA04212000494201F0AC
:1045540077FF04204042F8BDFFF7A4FF0028FAD1FA
:10456400002F10D03900433001F0C4FC002808D0DB
:10457400064B20005F69390001F06CFA04373D6294
:10458400FE770220E6E70320E4E7C046D4030020D8
:10459400F7B506000C00002804D00378F32B01D1F2
:1045A400002908DA042130000424494201F048FFBC
:1045B40064422000FEBDEFF3108372B6C268144358
:1045C400C460002B00D162B6B568002D03D1280069
:1045D40001F0CAFAEDE7AB68300000932B1D01939C
:1045E400DA7F696AFFF75EFF071E0FD002222B1DD8
:1045F400DB7F0400134201D16B6A9C43280001F065
:1046040049FA00223900280001F0D2FB009DDCE7C2
:1046140080B5EFF30583002B03D1EFF31083002B58
:1046240006D006210020494201F00AFF002080BD87
:0C463400014F00DFFBE7C046B54300105B
:10464000B0B5EFF30583002B03D1EFF31083002BFC
:104650001AD0002804D00378F32B01D1002907DAFF
:1046600004210424494201F0EDFE64422000B0BD63
:10467000EFF3108372B6C4680C43C460002B00D102
:1046800062B601F0EBF8F1E7014F00DF0400EDE75F
:04469000954500103C
:10469400B0B5EFF30584002C03D1EFF31084002CA4
:1046A40015D0002806D00478F32C03D1002B01D1B7
:1046B400002906DA0421494201F0C2FE04204042E6
:1046C400B0BDFFF7EFFE0028FAD10338F8E7014F39
:0846D40000DFF5E73545001099
:1046DC0080B5EFF30583002B03D1EFF31083002B90
:1046EC0006D00621494201F0A7FE0620404280BDBB
:0C46FC00014F00DFFBE7C046394400100E
:024708007047F8
:02470A007047F6
:10470C0070B5504C0020237A012B06D0834205D083
:10471C00013801F081FE0120404270BD4A4DEB682A
:10472C002A8AE3652300EE6A54331A80AB683000A2
:10473C00296B236400F00CF9002801D0231DDE67DF
:10474C006E69A969300000F003F9002801D1231D1E
:10475C00DE6F6667EE69296A300000F0F9F8002810
:10476C0001D1231DDE6FA6676E6AA96A300000F0C6
:10477C00EFF8002801D1231DDE6FE6676E6B002E6B
:10478C0008D0F3683000B268316800F052F92300A9
:10479C000833DE67AE6B002E08D0F3683000B268C9
:1047AC00316800F046F9230088331E60EE6B002E52
:1047BC0008D0F3683000B268316800F03AF9230091
:1047CC008C331E602E6C002E08D0F3683000B2685B
:1047DC00316800F02EF9230090331E606E6C002EB1
:1047EC0008D0F3683000B268316800F022F9230079
:1047FC0094331E60AE6C002E08D0F3683000B268A3
:10480C00316800F016F9230098331E60EE6C002E10
:10481C0008D0F3683000B268316800F00AF9230060
:10482C009C331E602D6D002D08D0EB682800AA6803
:10483C00296800F0FEF82300A0331D60012300203E
:0C484C0023726AE7D40300206C250110E1
:10485800F8B51E4C0720257A012D04D101F08CFBF8
:10486800002807D101200126404201F0D7FD7642F9
:104878003000F8BDFF23164A1B04116A154F0B437D
:104888001362136AD1695B029B0E9B060B4378681F
:104898001149D36101F04EFC061EE3D101F08EFCF4
:1048A800206101F06FFC0D4801F0E8F801F052F9C1
:1048B8003B682B4207D0022383F31488BFF36F8F22
:1048C80002232372D4E70323F6E7C046D40300206B
:1048D80000ED00E06C250110D5030010F003002066
:0248E800704717
:1048EA0070B50D000400FFF70AFF2900200001F04F
:0448FA004EFD70BD42
:1049000080B5FFF7F1FFEFF30583002B03D1EFF341
:104910001083002B06D00620404201F083FD0620C4
:10492000404280BD014F00DFFBE7C0460D4700104D
:1049300080B5EFF30583002B03D1EFF31083002B39
:1049400006D00620404201F06DFD0620404280BDA9
:0C495000014F00DFFBE7C0465948001093
:10495C00030010B5002813D002000A4307241000EE
:10496C00204022420DD117290AD91022196008398A
:10497C00C91899605A60086099684A60D86001202B
:06498C0010BD0020FCE755
:104992000300F0B5002817D0081E15D00326140016
:1049A2000020B44384420FD11D000F3107308143F0
:1049B20008352C002D686768281BB743C01B81424D
:1049C20003D928680028F4D1F0BD58681E68081879
:1049D20058609B19083B5E68B04200D95860606815
:1049E2000A43002803D1200062600830ECE7032369
:0C49F20098432018056042602060F6E742
:1049FE00020010B5002811D0081E0FD0130000249D
:104A0E00083908338B420AD103215868884351680C
:104A1E00091A5160002C08D15C60012010BD186885
:104A2E001C000028FAD00300ECE71B682360F4E7B3
:104A3E0030B504000800002C1BD0002914D0002A29
:104A4E0019D0002B19D02160002161601100414363
:104A5E005D18A260E360636125611C0001380028C7
:104A6E0003D1891A5850013030BDA51825602C008D
:0E4A7E00F4E72000F8E71000F6E71800F4E770
:104A8C000300EFF3108100280BD072B640690028A8
:104A9C0004D002685A615A6801325A60002900D168
:044AAC0062B6704737
:104AB000EFF31082002811D0C3688B420ED803692F
:104AC0008B420BD972B643690B6043684161013B6D
:104AD00043600020824200D162B670470420404209
:024AE000FBE7F2
:104AE20070B5EFF31085036B002B1DD00024CE7838
:104AF200DA78B24210D31A004A608C60002A11D0D0
:104B02009160002C13D0616072B6836A01338362B4
:104B1200002D00D162B670BD5A681C00002AEBD08D
:104B22001300E5E7C162ECE74B608B60C162016391
:024B3200EAE7B0
:104B3400EFF3108372B6826A002A11D0511E81628B
:104B4400002B0FD00122C06A00280ED072B68178E3
:104B54008270002B00D162B6002907D08068F3E789
:0E4B6400002B02D162B6002AECD1002070476F
:104B72004B688A68002B05D09A608A68002A03D0A5
:0C4B820053607047C262F8E70363FAE773
:104B8E00F8B587780400002F31D0C56800262F00B5
:104B9E0001000C372800FFF7E5FF210038002670D2
:104BAE00FFF77FFFAB68B34246D03800FFF767FFD1
:104BBE000400B04240D0280000F05DFF0700320034
:104BCE00310001F0F0F8380000F0BDFF07002000C2
:104BDE00B9686A6A0C3008F056FBF923A670237088
:104BEE00FB68E37021002800FFF774FF24E085685E
:104BFE00AB68002BF6D05B78832BF3D1280000F046
:104C0E003AFF06003A00390001F0CDF8300000F00E
:104C1E009AFF210006006A6A80680C3108F033FBA7
:104C2E00F368002B01D0E2781A70002328002100CF
:0A4C3E0023700C30FFF735FFF8BDBE
:104C4800F7B504000E0017000193002804D003787C
:104C5800FA2B01D1002907D104212000494201F093
:104C680007FC042040421AE08368002B18D05B78C8
:104C7800832B15D100F002FF05000122002101F06D
:104C880095F8280000F062FF050031008068626A2C
:104C980008F0FCFA0020EB68834200D01F70FEBDCC
:104CA8000C30FFF7EFFE051E0FD03100626A0C30A2
:104CB80008F0ECFA0026F923200029002B70AE70CA
:104CC800EF70FFF70AFF3000E9E7019B0320002B94
:104CD800C8D01900932001F00BF9002808D0054B23
:104CE8002000596900F0B4FEEFF309839E60DF608D
:084CF8000220B7E7D4030020FD
:104D0000F7B504000F0016000193002804D00378C3
:104D1000FA2B01D1002907D104212000494201F0DA
:104D2000ABFB042040421DE0FFF704FF051E3BD013
:104D300001002000FFF71DFF29003800626A0C31D6
:104D400008F0A8FA002E01D0EB7833702700002677
:104D50000C37290038002E70FFF7AAFEA368B34273
:104D600001D10020FEBD3800FFF790FE051EF8D0EF
:104D7000200000F087FE07003100012201F01AF840
:104D8000380000F0E7FE07002800B968626A0C30BE
:104D900008F080FAF923AE702B70FB682900200020
:104DA000EB70FFF79EFEDCE7019B0320002BB9D0E0
:104DB0001900832001F0A0F8002808D0054B20003E
:104DC000596900F049FEEFF309839F60DE6002201D
:084DD000A8E7C046D40300204F
:104DD800F0B587B017000190029100280AD0002989
:104DE80008D0FBF713FD04000298FBF70FFD00192C
:104DF8001F2806DC04210020494201F039FB002469
:104E08007AE00322029B033393430C3305930599FD
:104E1800019B4B430393002F21D03B68BC683D693D
:104E28007E690493002C06D0144202D1FB68332B10
:104E380004D80921DFE7FB68002BFAD1002D09D03F
:104E480003222B001340154202D1039AB24256D9CD
:104E58000A21D0E7002EFBD1002C10D101E03D0043
:104E68000497284B1A00A032106800281BD0FFF7BF
:104E780009FE041E15D00123002D27D11E00214F45
:104E880000220399F86FFFF780FD051E18D1002E48
:104E980007D03B00A033186800280BD02100FFF78B
:104EA80003FE0521A7E7043301223421D86FFFF759
:104EB8006CFDDEE704372100F86FFFF79CFDF0E793
:104EC8000021039A08F074FA02233343FA22A370EC
:104ED800049B2000636000232270029AA360626230
:104EE800A362059AE362236301992B000C30FFF754
:104EF800A2FD044B044A1A67200007B0F0BD002C3D
:0C4F0800E4D1AEE7D40300208F4B001072
:104F1400064B10B59A6ED86E0821FFF75BFF044B61
:104F2400D86443425841404210BDC0466C2501102C
:044F3400D403002082
:104F3800F7B505000E0001920093EFF30583002BEF
:104F480003D1EFF31083002B29D0002D07D02B7845
:104F5800FA2B04D1002E02D0009B002B07D004218D
:104F68002800494201F084FA0420404216E0280053
:104F78000C30FFF787FD041E16D031006A6A0C302A
:104F880008F084F9F9232370009B2000A370019B8B
:104F98006660E370A56000F05DFC0098FEBD019AB4
:104FA800009B024F00DFF9E70320DEE7494C0010C1
:104FB800F7B504000E000192EFF30582002A03D131
:104FC800EFF31082002A27D0002C06D02278FA2A84
:104FD80003D1002E01D0002B07D004212000494224
:104FE80001F046FA0420404215E02000FFF79EFD3C
:104FF800051E15D00100626A30000C3108F046F930
:10500800019B002B02D0EB78019A13702800EC600A
:1050180000F020FC0020FEBD019A024F00DFFAE7F5
:085028000320E0E7014D001038
:1050300070B500283AD0846805684668002C0FD007
:10504000032223001340144202D1C2681B2A1CD839
:1050500009210020494201F0FDF90024200070BD23
:10506000C368002BF4D1134B1A0094321068002847
:1050700006D1043301221C21D86FFFF78AFC01E01E
:10508000FFF704FD041E0CD00123F522A3700023BA
:105090002270E6706560A360E3602361636123763C
:1050A000DCE70521494201F0D5F9D7E70500060004
:0850B000D9E7C046D40300203B
:1050B8002A4B70B55D6904000E00002D06D1082149
:1050C800494201F0C3F90120404219E0002802D00A
:1050D8000378F52B06D004212000494201F0B6F9E7
:1050E8000420F1E7037E002B0BD10361EB6AC56056
:1050F8004361002B00D018610123EC620020237665
:1051080070BDC278D1070CD5C168A94209D1FF2B5F
:1051180005D11021494201F099F90320D4E7013360
:10512800ECE7002EF9D092070BD51F221F21E0686B
:105138006B1C9A56431C5956914202DADA7700F0F2
:10514800B2FC3100532000F0D3FE002803D0290020
:10515800200000F07DFC0220B6E7C046D403002002
:10516800354B70B55B690400002B06D10821494214
:1051780001F06CF90120404270BD002802D002788D
:10518800F52A06D004212000494201F05FF90420E5
:10519800F1E7027E0F21002A03D0C168994206D0A8
:1051A8000E212000494201F051F90320E3E7013ABA
:1051B800D2B2027600208242DED16269824201D0F8
:1051C800216911612169002923D04A6102209A1CB2
:1051D800D27FDD6A52B2002D1DD10133DA77A36880
:1051E800002B11D0200000F049FC06002A002900FD
:1051F80000F0DCFDF36AE66025616361002B00D0F6
:105208001C610123F4622376002000F0ABFC00202F
:10521800B2E7DA62DAE7E97801420AD0A968002938
:1052280007D00131C97F0E1C49B2914200DA161C21
:0C52380072B26D69CFE7C046D4030020BD
:1052440070B5041E02D00378F52B08D00421200089
:105254000425494201F0FCF86D42280070BD037E2C
:10526400002B1FD06369C068002B01D022691A612A
:105274002269002A25D053610225831CDB7FC26A80
:105284005BB2002A1FD11F21421C5156994202D001
:10529400D37700F00AFC03256D42A068002822D1D0
:1052A40000F062FC0025A3782570DB07D5D5154BEB
:1052B4001A0094321068A8421DD02100FFF7F6FBB3
:1052C400CBE7C362D8E7D17829420AD09168002994
:1052D40007D00131C97F0E1C49B2994200DA1E1C65
:1052E40073B25269CDE7200000F0CAFB0022290006
:1052F40000F05EFDD1E704332100D86FFFF77DFB9A
:08530400ABE7C046D403002012
:10530C00F8B50400002C00D1F8BD0822E3786769D9
:10531C00134216D00026A3682676B34211D0200083
:10532C0000F0AAFB05003200310000F03DFDEB6AF5
:10533C00E56026616361B34200D01C610123EC621D
:06534C0023763C00DEE7C1
:1053520070B50225C3782B4220D01F22C0684319A2
:105362009A56C46AE3782B420DD0A3688B4200D1CF
:105372008B68002B07D00133DB7F1E1C5BB293428C
:1053820000DA161C72B26469002CEBD11F21431C97
:0E5392005956914202D0DA7700F088FB70BDC8
:1053A00080B5EFF30583002B03D1EFF31083002BBF
:1053B00006D006210020494201F04CF8002080BDB3
:0C53C000014F00DFFBE7C0463150001039
:1053CC0080B5EFF30583002B03D1EFF31083002B93
:1053DC0006D00621494201F037F80620404280BD34
:0C53EC00014F00DFFBE7C046B950001085
:1053F80080B5EFF30583002B03D1EFF31083002B67
:1054080006D00621494201F021F80620404280BD1D
:0C541800014F00DFFBE7C04669510010A7
:1054240080B5EFF30583002B03D1EFF31083002B3A
:1054340006D00621494201F00BF80620404280BD07
:0C544400014F00DFFBE7C046455200109E
:105450000300EFF3108172B682890020824202D0ED
:0E546000013A9A810130002900D162B67047EE
:10547000F8B5244B0E00411E0500994201D8B042F8
:1054800007D204210020494200F0ECFF0024200054
:10549000F8BD002A27D094681768002C09D0032192
:1054A00023000B400C4202D1D2680F2A0FD80921E9
:1054B000E8E7D368002BFAD1134B1A009832106832
:1054C000002812D0FFF7E2FA041E15D00123F622BD
:1054D000A37000232270A3600C4A0B4B6760A68167
:1054E000E5819A66D3E71700E6E70433012210212D
:1054F000D86FFFF74EFAE7E70521494200F0B2FF07
:10550000C5E7C046FEFF0000D4030020815500100F
:1055100070B5041E02D00378F62B08D004212000B9
:105520000425494200F09EFF6D42280070BD83684B
:10553000002B0DD003256D42200000F0A3FA0022BD
:10554000290000F037FCA0680028F5D100F00EFB20
:105550000025A3782570DB07E7D5084B1A009832A1
:105560001068A84203D02100FFF7A2FADDE7043358
:105570002100D86FFFF743FAD7E7C046D4030020D5
:10558000836810B50400002B0AD0FFF761FF0028E4
:1055900006D0200000F076FA0022110000F00AFC8C
:0255A00010BD3C
:1055A20010B5002802D00378F62B06D00421494218
:1055B20000F057FF0420404209E08368002B07D027
:1055C20000F05FFA0122002100F0F3FB002010BD81
:1055D200EFF3108172B68289C489944206D90132EE
:1055E200828118000029F2D162B6F0E7002900D1C9
:0E55F20062B61121494200F034FF0320DBE7CE
:1056000070B504000D00002802D00378F62B08D0F6
:1056100004212000494200F025FF04235B421800CA
:1056200070BDFFF715FF00239842F8D19D420CD0C2
:105630002900632000F060FC002804D0044B200007
:10564000596900F009FA0223E8E70323E6E7C046B8
:04565000D40300205F
:1056540080B5EFF30583002B03D1EFF31083002B08
:1056640006D006210020494200F0FAFE002080BD49
:0C567400014F00DFFBE7C046715400103E
:10568000B0B50C00EFF30583002B03D1EFF31083CB
:10569000002B15D0002804D00378F62B01D1002C64
:1056A00006D00421494200F0DDFE04204042B0BD96
:1056B000FFF7CEFE03002000002BF8D10320F5E712
:0C56C000014F00DFF3E7C0460156001068
:1056CC0080B5EFF30583002B03D1EFF31083002B90
:1056DC001BD0002802D00378F62B06D004214942B7
:1056EC0000F0BAFE042040420EE0EFF3108272B6D6
:1056FC008389C18999420BD901338381002A00D156
:10570C0062B600F0A5F8002080BD064F00DFFBE775
:10571C00002A00D162B61121494200F09DFE0320FF
:08572C00E1E7C046A35500109F
:1057340080B5EFF30583002B03D1EFF31083002B27
:1057440006D00621494200F08BFE0620404280BD6F
:0C575400014F00DFFBE7C04611550010BC
:1057600070B500F029FD1E4CE3680133E36000F0E2
:10577000BBF9002000F0FAF9236D002B00D0984708
:10578000226C002A2BD0A369E06BD969984203D020
:10579000E363002900D1DA61DA69002A1BD1237A98
:1057A000022B1CD1656A002D19D0E36B6A1C0133F2
:1057B000D27FDB7F52B25BB29A4210D1280000F058
:1057C0006BF9E06B00F086F9280000F0C7F9236C54
:1057D000E563EB6103E0013ADA61002ADFD070BDD6
:0457E000D4030020CE
:1057E400F8B51C4B1D001C001E00543556345A36A7
:1057F400288872B62288002A04D162B6002000F0FC
:10580400B3F9F8BD013A22801A005A321288D96DD0
:105814009700013292B27958904200D1002232802E
:1058240062B60029EAD00878F1380828E0D8FAF7F7
:105834000FFE05DF09DFDF0B0DDF0F001B6E080015
:105844009847CEE75B6EFAE79B6EF8E7DB6EF6E708
:085854001B6FF4E7D4030020F0
:10585C00010070B5EFF31080174A130054331C8805
:10586C0072B6150056352B889C421DD901332B80FE
:10587C00130058331B88D56D9E0001339BB27151B8
:10588C009C4200D10023110058310B80002800D11C
:10589C0062B6537A002B04D18022084B52055A6011
:1058AC0070BD01239372FBE7002800D162B6022081
:1058BC00FFF715F8F4E7C046D403002000ED00E034
:0C58CC000378F12B00D07047C068F9E7AA
:1058D80010B5C46903694169621C0ED1002B00D060
:1058E80059614269002A03D013610023436101E032
:1058F800084A13630023C36110BD002B03D0DA6983
:1059080059611219DA614269002AEDD1014AD3625C
:08591800F0E7C046D4030020B3
:1059200001231F2110B54370C3185956094B0A4A69
:105930005B6A002B04D05C1CE47F64B28C4206DC02
:10594000C26083609060002B00D0D86010BD1A0048
:0C5950009B68EEE7D4030020F003002069
